:100000000C94F4000C941C010C941C010C941C0125
:100010000C941C010C941C010C941C010C941C01EC
:100020000C941C010C941C010C941C010C941C01DC
:100030000C941C010C941C010C941C010C941C01CC
:100040000C9442070C941C010C94B2070C948C077E
:100050000C941C010C941C010C941C010C941C01AC
:100060000C942A060C941C014E414E494E49545999
:10007000494E46CDCCCC3D0AD7233C17B7D1387773
:10008000CC2B329595E6241FB14F0A000020410089
:1000900000C84200401C4620BCBE4CCA1B0E5AAED3
:1000A000C59D7400407A10F35A00A0724E180900E2
:1000B00010A5D4E80000E87648170000E40B5402CD
:1000C0000000CA9A3B000000E1F505000080969808
:1000D00000000040420F000000A086010000001058
:1000E0002700000000E8030000000064000000009A
:1000F000000A00000000000100000000002C76D87B
:1001000088DC674F0823DFC1DFAE59E1B1B796E560
:10011000E3E453C63AE651997696E8E6C28426EBC4
:10012000898C9B62ED407C6FFCEFBC9C9F40F2BAD7
:10013000A56FA5F490055A2AF75C936B6CF9676D6F
:10014000C11BFCE0E40D47FEF520E6B500D0ED90C4
:100150002E0300943577050080841E080000204E91
:100160000A000000C80C333333330F986E1283112A
:1001700041EF8D2114893BE65516CFFEE6DB18D101
:10018000844B381BF77C1D901DA4BBE424203284D3
:10019000725E228100C9F124ECA1E53D2700000038
:1001A00000250028002B00040404040404040402B5
:1001B0000202020202030303030303010204081004
:1001C00020408001020408102001020408102000D1
:1001D0000000080002010000030407000000000006
:1001E00000000000E407D40B11241FBECFEFD8E0BD
:1001F000DEBFCDBF22E0A0E9B1E001C01D92AC3F5F
:10020000B207E1F711E0A0E0B1E0E4E4F7E202C0F8
:1002100005900D92A039B107D9F710E0C3EFD0E0F7
:1002200004C02197FE010E942611C23FD107C9F7E1
:100230000E943D080C9495130C94000090E0FC0182
:10024000E153FE4F2491FC01E554FE4F3491FC0133
:10025000E955FE4FE491EE23B1F0222339F023302B
:10026000E9F090F4213001F1223011F1F0E0EE0FCD
:10027000FF1FE356FE4FA591B4918FB7F894EC9110
:100280003E2B3C938FBF08952730A9F02830C9F04A
:10029000243061F7809180008F7D03C080918000C1
:1002A0008F7780938000E2CF84B58F7784BDDECFD7
:1002B00084B58F7DFBCF8091B0008F778093B000A5
:1002C000D5CF8091B0008F7DF9CF85ED8093BC00B4
:1002D0008091BC0084FDFCCF1092FF010895613233
:1002E00098F42091FF01243089F46093DB01282FDA
:1002F000ABEBB1E0FC018E2F821B861710F080E083
:10030000089581918D93F7CF81E0089582E008955B
:10031000089581E090E03091BA012091B90132173F
:1003200010F490E080E09195819591090895809175
:10033000BA019091B901891730F48F5F8093BA01A7
:1003400090E080E008958FEF9FEF08958091B901CC
:100350009091BA01891B990B0895CF92DF92EF9289
:10036000FF920F931F93CF93DF937C01CB018A0100
:100370002091B801222389F0EB016B01C40ED51E38
:10038000CC15DD0569F06991D701ED91FC910190E3
:10039000F081E02DC7010995F3CF642F0E946F0112
:1003A000C801DF91CF911F910F91FF90EF90DF90E7
:1003B000CF900895CF93DF931F92CDB7DEB76983B7
:1003C0002091B8012223F9F02091B701203258F092
:1003D00021E030E0FC013383228390E080E00F9045
:1003E000DF91CF9108958091B601E82FF0E0EA56B1
:1003F000FE4F998190838F5F8093B6018093B70100
:1004000081E090E0ECCF61E0CE0101960E946F01A7
:10041000F7CF3FB7F8948091920190919301A0910A
:100420009401B091950126B5A89B05C02F3F19F006
:100430000196A11DB11D3FBFBA2FA92F982F882764
:10044000BC01CD01620F711D811D911D42E0660F3F
:10045000771F881F991F4A95D1F708958F929F9211
:10046000AF92BF92CF92DF92EF92FF924B015C016D
:100470000E9409026B017C010E9409026C197D092E
:100480008E099F09683E734081059105A8F321E01C
:10049000821A9108A108B10888EEC80E83E0D81E20
:1004A000E11CF11C81149104A104B10429F7FF900F
:1004B000EF90DF90CF90BF90AF909F908F90089576
:1004C0000895AF92BF92CF92DF92EF92FF920F9377
:1004D0001F93CF93DF936C017B018B01040F151FDA
:1004E000EB015E01AE18BF08C017D10759F0699142
:1004F000D601ED91FC910190F081E02DC6010995A6
:10050000892B79F7C501DF91CF911F910F91FF9052
:10051000EF90DF90CF90BF90AF900895FC014481A1
:100520005581608171818AEE92E00C946102FC0138
:10053000538D448D252F30E0842F90E0821B930B48
:10054000541710F0CF96089501970895FC01918DEE
:10055000828D981761F0A28DAE0FBF2FB11D5D96F1
:100560008C91928D9F5F9F73928F90E008958FEF93
:100570009FEF08952FB7F89480912502909126025D
:10058000A0912702B09128022FBF80933D02909343
:100590003E02A0933F02B093400285E392E00E94A6
:1005A000A60297FF26C02FB7F8948091250290915C
:1005B0002602A0912702B09128022FBF40913D0250
:1005C00050913E0260913F0270914002841B950B56
:1005D000A60BB70B4091390250913A0260913B0251
:1005E00070913C0284179507A607B707B0F28FEF0A
:1005F0009FEF0895FC01918D828D981731F0828DC7
:10060000E80FF11D858D90E008958FEF9FEF08951D
:10061000FC01918D228D892F90E0805C9F4F821B81
:1006200091098F739927089585E392E00E9408034A
:1006300021E0892B09F420E0822F089580E090E0EA
:10064000892B29F00E94140381110C940000089555
:10065000FC01A48DA80FB92FB11DA35ABF4F2C9137
:10066000848D90E001968F739927848FA689B7892E
:100670002C93A089B1898C91837080648C93938D25
:10068000848D981306C00288F389E02D80818F7DC8
:1006900080830895EF92FF920F931F93CF93DF9380
:1006A000EC0181E0888F9B8D8C8D98131AC0E889AE
:1006B000F989808185FF15C09FB7F894EE89FF897D
:1006C0006083E889F98980818370806480839FBF1B
:1006D00081E090E0DF91CF911F910F91FF90EF901B
:1006E0000895F62E0B8D10E00F5F1F4F0F7311272B
:1006F000E02E8C8D8E110CC00FB607FCFACFE88966
:10070000F989808185FFF5CFCE010E942803F1CFC2
:10071000EB8DEC0FFD2FF11DE35AFF4FF0829FB7D9
:10072000F8940B8FEA89FB8980818062CFCFCF93C9
:10073000DF93EC01888D8823B9F0AA89BB89E88909
:10074000F9898C9185FD03C0808186FD0DC00FB6AF
:1007500007FCF7CF8C9185FFF2CF808185FFEDCF2D
:10076000CE010E942803E9CFDF91CF910895CF9366
:10077000FC01C48121E02093B801C0939001109244
:10078000B6011092B7018385682B89E292E00E943E
:10079000DA019091B7019132D8F58091FF01811172
:1007A000FCCF82E08093FF0181E0809301028FEF14
:1007B0008093FE011092230290932202A6E9B1E0F9
:1007C000E2E0F2E080E098132BC0109224028091C6
:1007D0002402CC0FC82BC0932402809100028130E8
:1007E00019F510920002809124028093BB0085ECE1
:1007F0008093BC008091FF018230E1F38091FE0183
:100800008F3F31F08091FE01803211F08091FE0126
:100810001092B6011092B7011092B801CF910895CD
:100820002D9121938F5FCFCF85EEE2CF90E080E0D6
:1008300008950F931F93CF938C01C62F0E94B70387
:100840006C2F6460C8010E94B7036C2F6B7FC801D6
:100850000E94B70383EC90E00197F1F7CF911F91CD
:100860000F9108950F931F93CF93DF938C01D62F91
:10087000C42F607F642B0E94190480E1D89FB001CF
:1008800011246C2BC801DF91CF911F910F910C9413
:100890001904CF93DF93CDB7DEB728970FB6F8943E
:1008A000DEBF0FBECDBF98E0E6E1F1E0DE011196BC
:1008B00001900D929A95E1F79091F302961708F442
:1008C0006FEF262F30E0220F331F41E050E04C0F36
:1008D0005D1F240F351FF9016081680F606840E0DB
:1008E0008AEE92E028960FB6F894DEBF0FBECDBF19
:1008F000DF91CF910C94320441E00E94320481E0F8
:1009000090E00895FC0101900020E9F73197AF01D4
:10091000481B590BBC018AEE92E00C946102FC0169
:1009200080819181009711F00C94020C60E070E0DE
:10093000CB0108950F931F93CF93DF938C01EB01AD
:10094000FC01808191810097E1F0688179816115D6
:100950007105A9F0428153812C813D8142175307D3
:1009600070F00E948E138C819D81F80195838483A1
:100970001D821C82DF91CF911F910F9108950E94DB
:100980003F1288819981F801918380838A819B81BC
:10099000938382838C819D819583848319821882BD
:1009A0001B821A82E5CFCF93DF93EC018881998176
:1009B000009711F00E943F12198218821D821C823A
:1009C0001B821A82DF91CF910895FC018081918171
:1009D000009711F00C943F1208950F931F93CF933B
:1009E000DF93EC0188819981009759F02A813B813E
:1009F0002617370730F081E0DF91CF911F910F91DB
:100A000008958B016F5F7F4F0E94C812009759F0C5
:100A1000998388831B830A832C813D81232B59F77B
:100A2000FC011082E8CF80E0E7CFEF92FF920F93B6
:100A30001F93CF93DF938C017B01FB01019000207A
:100A4000E9F73197E61BF70BD1F0DC011496CD9155
:100A5000DC91CE0FDF1FBE010E94ED048823B9F0A8
:100A6000F8012081318184819581B701820F931F24
:100A70000E948E13D8011596DC93CE931497C8016B
:100A8000DF91CF911F910F91FF90EF900895C801D2
:100A90000E94D304F4CFEF92FF920F931F93CF9352
:100AA000DF93EC017B018A01BA010E94ED04811100
:100AB0000BC0CE010E94D304CE01DF91CF911F91D4
:100AC0000F91FF90EF9008951D830C83B7018881EB
:100AD00099810E948E13F0CFFC0111821082138243
:100AE00012821582148250E040E061E871E00C94BB
:100AF0004B05EF92FF920F931F93CF93DF93CDB7E8
:100B0000DEB7A1970FB6F894DEBF0FBECDBF7C0154
:100B1000CB01BA01F7011182108213821282158271
:100B200014828E010F5F1F4F22E044E00E94E40B0D
:100B30000097C9F0FC0101900020E9F73197AF015F
:100B4000481B590BBC01C7010E944B05A1960FB66B
:100B5000F894DEBF0FBECDBFDF91CF911F910F91F3
:100B6000FF90EF900895C7010E94D304EFCFAF929A
:100B7000BF92CF92DF92EF92FF920F931F93CF938A
:100B8000DF937C016B015A0189012417350720F49A
:100B90008B2D5901042F182FC7010E946C05D60117
:100BA0001496CD91DC91AC16BD0620F50C171D07EF
:100BB00008F4E801D601ED91FC911197EC0FFD1FAF
:100BC000108110826D917C916A0D7B1D61157105FC
:100BD000E9F0FB0101900020E9F73197AF01461BD6
:100BE000570BC7010E944B05F60180819181C80F08
:100BF000D91F1883C701DF91CF911F910F91FF90EB
:100C0000EF90DF90CF90BF90AF900895C7010E9402
:100C1000D304EACFCF93DF93EC01FB01861797074C
:100C200049F0608171816115710541F04481558100
:100C30000E944B05CE01DF91CF9108950E94D3040D
:100C4000F9CFFC0111821082138212821582148264
:100C50000C940A061F920F920FB60F9211242F9335
:100C60003F934F935F936F937F938F939F93AF9334
:100C7000BF93EF93FF938091B900887F803609F48A
:100C80004AC0F0F5883209F4A5C018F5803109F49E
:100C900099C0B8F4882309F4F2C0883009F492C0EE
:100CA000FF91EF91BF91AF919F918F917F916F9144
:100CB0005F914F913F912F910F900FBE0F901F901A
:100CC0001895883109F486C0803251F78093FE016F
:100CD00014C0803409F49BC040F48033B9F38833E6
:100CE000F9F68093FE0185ECAEC0803509F483C02F
:100CF000883509F494C0883499F60E946501D0CFF4
:100D0000883909F48AC038F5883729F050F48836D4
:100D100011F0803729F683E08093FF011092FD01E6
:100D200055C0883809F479C0803919F0803809F045
:100D3000B7CF8091FD01803208F06FC0E091FD01D6
:100D400081E08E0F8093FD018091BB00F0E0E352C3
:100D5000FE4F80833BC0803B39F0D0F4803A09F4E9
:100D600077C0883A09F09CCF84E08093FF0110920D
:100D7000DC011092DB01F0E0E0E009958091DB01FD
:100D800081110FC081E08093DB011092BB0109C08B
:100D9000803C09F4A8CF883C09F4A5CF883B09F032
:100DA0007FCFE091DC0181E08E0F8093DC01F0E0E9
:100DB000E554FE4F80818093BB009091DC018091CF
:100DC000DB0129C0809124028093BB0085EC8093D5
:100DD000BC0066CF9091230280912202981758F5AB
:100DE000E091230281E08E0F80932302F0E0EE5F1A
:100DF000FD4F8081E9CFE091230281E08E0F809347
:100E000023028091BB00F0E0EE5FFD4F8083909164
:100E10002302809122029817C8F285E8D8CFE0918A
:100E2000230281E08E0F809323028091BB00F0E0CB
:100E3000EE5FFD4F80838091010281115ECF81E0E2
:100E40008093000284EA8093BC001092FF0128CFB7
:100E50008091FD01803230F4E091FD01F0E0E35239
:100E6000FE4F10820E9465016091FD0170E08DEDE2
:100E700091E0F0E0E0E009951092FD0134CF10928E
:100E8000FE013BCF1F920F920FB60F9211242F93AA
:100E90003F938F939F93AF93BF938091250290913F
:100EA0002602A0912702B09128023091910123E0FF
:100EB000230F2D3758F50196A11DB11D20939101E7
:100EC0008093250290932602A0932702B0932802D4
:100ED0008091920190919301A0919401B09195011C
:100EE0000196A11DB11D8093920190939301A0934F
:100EF0009401B0939501BF91AF919F918F913F91D4
:100F00002F910F900FBE0F901F90189526E8230F7A
:100F10000296A11DB11DD2CF1F920F920FB60F9254
:100F200011242F933F934F935F936F937F938F93EE
:100F30009F93AF93BF93EF93FF9385E392E00E945B
:100F40002803FF91EF91BF91AF919F918F917F9176
:100F50006F915F914F913F912F910F900FBE0F9026
:100F60001F9018951F920F920FB60F9211242F9376
:100F70008F939F93EF93FF93E0914502F091460288
:100F80008081E0914B02F0914C0282FD1BC0908168
:100F900080914E028F5F8F7320914F02821741F034
:100FA000E0914E02F0E0EB5CFD4F958F80934E0296
:100FB000FF91EF919F918F912F910F900FBE0F9006
:100FC0001F9018958081F4CFE9E2F2E0138212823B
:100FD00088EE93E0A0E0B0E084839583A683B78396
:100FE00022E231E031832083E5E3F2E013821282D2
:100FF00084839583A683B78384E391E09183808380
:1010000085EC90E09587848784EC90E097878687CD
:1010100080EC90E0918B808B81EC90E0938B828BC5
:1010200082EC90E0958B848B86EC90E0978B868B9E
:10103000118E128E138E148EEAEEF2E0138212825B
:1010400086E491E09183808387E2848380E18087D6
:1010500082E08187128688E0838784EE92E00E9496
:101060006C058EED92E00E946C0588ED92E00E9486
:101070006C0582ED92E00C946C05CF93DF93CDB7B5
:10108000DEB768970FB6F894DEBF0FBECDBF789479
:1010900084B5826084BD84B5816084BD85B582607D
:1010A00085BD85B5816085BD80916E00816080932E
:1010B0006E00109281008091810082608093810097
:1010C00080918100816080938100809180008160A7
:1010D000809380008091B10084608093B100809102
:1010E000B00081608093B00080917A00846080932A
:1010F0007A0080917A00826080937A0080917A00F1
:10110000816080937A0080917A00806880937A0071
:101110001092C1001092BA011092B9011092B6015A
:101120001092B7011092FF0181E0809301021092AA
:10113000000282E10E941E0183E10E941E01809153
:10114000B9008E7F8093B9008091B9008D7F809324
:10115000B90088E48093B80085E48093BC001092C5
:10116000EF028091F302823018F098E09093EF0242
:101170009091F402992339F0813029F48091EF02A3
:1011800084608093EF0262E370E080E090E00E9470
:101190002E026091F5028AEE92E00E94B70368EE9B
:1011A00073E080E090E00E942E0260E38AEE92E01D
:1011B0000E9419040BE416E4C8010197F1F760E3FB
:1011C0008AEE92E00E941904C8010197F1F760E3EA
:1011D0008AEE92E00E94190483E592E00197F1F70C
:1011E00060E28AEE92E00E9419046091EF02606270
:1011F00040E08AEE92E00E94320484E08093F002A4
:1012000040E06CE08AEE92E00E94320440E061E04F
:101210008AEE92E00E9432040BE31FE1C8010197BD
:10122000F1F782E08093F10240E066E08AEE92E01E
:101230000E94320440E062E08AEE92E00E943204B2
:10124000C8010197F1F740E068E48AEE92E00E945D
:10125000320408E011E020E1E22E21E0F22EF80154
:1012600061918F018AEE92E00E947C04E016F10603
:10127000B1F740E060E58AEE92E00E94320400E0BF
:1012800011E098E0E92E91E0F92EF80161918F01CB
:101290008AEE92E00E947C04E016F106B1F788E045
:1012A0008093F50260E08AEE92E00E94B70340E08E
:1012B00062E08AEE92E00E9432040BE31FE1C80173
:1012C0000197F1F760E080E00E944904E091450257
:1012D000F091460282E08083E0914102F091420267
:1012E0001082E0914302F09144028FEC80831092CF
:1012F0004D02E0914902F0914A0286E08083E0913C
:101300004702F0914802808180618083E09147022A
:10131000F0914802808188608083E0914702F091DB
:101320004802808180688083E0914702F091480202
:1013300080818F7D80838EE491E00E94820440E072
:1013400061E08AEE92E00E943204C8010197F1F751
:1013500060E080E00E9449048BE591E00E948204F5
:1013600061E080E00E94490481E691E00E948204ED
:1013700080E0A82E80E0B82E8091E8029091E902EA
:10138000892BA1F0E091E402F091E50280818823AD
:1013900069F08091E2029091E302892B39F0E091AB
:1013A000DE02F091DF028081811116C060E085E0ED
:1013B0000E94490487E691E00E94820461E085E092
:1013C0000E94490487E691E00E94820485E392E04E
:1013D0000E940803892BD1F385E392E00E94080361
:1013E000181619060CF05DC1CE0143960E946C05DB
:1013F0000E94BA0297FD1BC089831A820F89188D3B
:101400000F5F1F4FB801CE0143960E94ED04882361
:1014100079F32B893C898F89988DBE016F5F7F4F4F
:10142000820F931F0E948E13188F0F8BE1CF29E03C
:1014300030E045E050E0BE016D5E7F4FCE01019689
:101440000E94B705BE016F5F7F4F84EE92E00E945D
:101450009A04CE0101960E94E50423E130E04FE0BA
:1014600050E0BE016D5E7F4FCE0101960E94B70530
:10147000BE016F5F7F4F8EED92E00E949A04CE0115
:1014800001960E94E50421E230E04CE150E0BE010B
:101490006D5E7F4FCE0101960E94B705BE016F5F62
:1014A0007F4F88ED92E00E949A04CE0101960E943F
:1014B000E5042FE230E04BE250E0BE016D5E7F4F6D
:1014C000CE0101960E94B705BE016F5F7F4F82ED8E
:1014D00092E00E949A04CE0101960E94E50488EDF4
:1014E00092E00E948F042B013C0182ED92E00E9469
:1014F0008F046B017C0120E030E04AE754E4C30133
:10150000B2010E949E1187FDD8C020E030E04AE77A
:1015100054E4C301B2010E942C11AB01BC01CE0105
:1015200001960E94790523E030E050E040E0BE01E2
:101530006F5F7F4FCE0107960E94B705BE01695FBE
:101540007F4FCE010D960E9421066BE671E0CE0121
:101550000D960E941505BC0188ED92E00E940A06D6
:10156000CE010D960E94E504CE0107960E94E50487
:10157000CE0101960E94E50420E030E04AE754E401
:10158000C701B6010E949E1187FDB2C020E030E085
:101590004AE754E4C701B6010E942C11AB01BC011B
:1015A000CE0101960E94790523E030E050E040E052
:1015B000BE016F5F7F4FCE0107960E94B705BE0147
:1015C000695F7F4FCE010D960E9421066BE671E0A8
:1015D000CE010D960E941505BC0182ED92E00E949D
:1015E0000A06CE010D960E94E504CE0107960E94E0
:1015F000E504CE0101960E94E50484EE92E00E948B
:101600008F042B013C018EED92E00E948F046B0150
:101610007C0160E084E00E94490461E08AEE92E08F
:101620000E947C0484EE92E00E948E0220E030E072
:101630004AEA52E4C301B2010E949E1160E087FDB4
:1016400072C089E00E94490483E791E00E9482040D
:1016500061E084E00E94490461E08AEE92E00E9429
:101660007C048EED92E00E948E0220E030E046E99C
:1016700052E4C701B6010E949E1187FD6FC061E070
:1016800089E00E94490482E891E00E94820485E397
:1016900092E00E940803892BD1F3CE0143960E9469
:1016A000E504A114B10409F467CE0E941403882351
:1016B00009F462CE0E9400005FCEB301A201CE0108
:1016C00001960E94790523E030E050E040E0BE0141
:1016D0006F5F7F4FCE0107960E94B705BE01695F1D
:1016E0007F4FCE010D960E9421066FE671E02FCF4D
:1016F000B701A601CE0101960E94790523E030E0F2
:1017000050E040E0BE016F5F7F4FCE0107960E9420
:10171000B705BE01695F7F4FCE010D960E9421067D
:101720006FE671E055CF89E00E94490462E08AEEDD
:1017300092E00E947C0468ED72E0CE0101960E9466
:1017400021066FE671E0CE0101960E9415050E9408
:101750008E02CE0101960E94E5047ACF20E030E0AF
:1017600046E952E4C701B6010E94AE0F87FF8FCF52
:1017700061E089E00E94490462E08AEE92E00E9402
:101780007C0462ED72E0CE0101960E9421066FE6B4
:1017900071E0CE0101960E9415050E948E02CE01D5
:1017A00001960E94E50473CF82ED92E00E94E50469
:1017B00088ED92E00E94E5048EED92E00E94E5043F
:1017C00084EE92E00C94E504EF920F931F93CF9375
:1017D000DF93E80134E047FD34E1042E000C550BA3
:1017E00057FF03C0519541955109E32E022F242F35
:1017F000AE010E94060CCE01DF91CF911F910F9197
:10180000EF900895662777270C94650DA9E0B0E066
:10181000ECE0FCE00C94E6106A01F22EB02E102FE2
:10182000FBE3AF2EA01608F41BE31F5F012F27E098
:10183000AE014F5F5F4F0E94B50EBC018981982FAA
:101840009970913009F43FC09BE2E1FC04C09E2DE9
:101850009170E0FC3AC05E2D5071E82FE87083FF74
:1018600046C084E0911101C083E0EF2DE81B8F1585
:1018700008F0E0E0D6018E2F20E2552351F19923A4
:1018800029F0D6019C93C60101966C0196012D5F4B
:101890003F4FE2FE24C08EE4D6018C9391E4119672
:1018A0009C93119712968C93D9018E2F90E28111FF
:1018B0001BC0E20FF32FF11D10828EEF9FEF2996D0
:1018C000ECE00C9402119DE2C6CF90E2C4CF2D93C0
:1018D00081508111FCCFCE0ED11CE0E0D0CF8EE63E
:1018E000D6018C9391E6DBCF9D938150E0CF482FBA
:1018F000447082FF3DC084E0911101C083E08F15E8
:1019000010F4EF2DE81BD6018E2F20E2552309F1AC
:10191000992329F0D6019C93C60101966C0196018A
:101920002D5F3F4FE2FE1BC089E4D6018C938EE40D
:1019300011968C93119786E412968C93D9018E2F71
:1019400090E2882309F4B5CF9D938150FACF2D936F
:1019500081508111FCCFCE0ED11CE0E0D9CF89E6B9
:10196000D6018C938EE611968C93119786E6E4CF80
:101970009B0177FF02C030E020E0A1E0B0E09111D0
:1019800002C0B0E0A0E0F9013196AE0FBF1F8B2C72
:10199000912CBB2009F461C05401EFEFAE1ABE0ACE
:1019A000AA0DBB1DFA161B0619F014F04F2D4A1B89
:1019B000511188C0E3FC59C07601A42FB0E2A111F7
:1019C0004FC0C40ED11C992309F45BC040E0D6017E
:1019D0001196F60190836D01552309F448C0012F3B
:1019E000060F9A81582F507184FF03C0913309F478
:1019F000015010160CF047C0093008F008E0EEE284
:101A0000FE2E5B01A01AB108850191948194910882
:101A10002F3F320729F4D601FC92F60131966F016F
:101A20006217730794F1021713077CF5DB01A21B01
:101A3000B30BAA24A394B12CAC0EBD1EAA0DBB1DE2
:101A400011968C9121503109D6011196281539052E
:101A5000F4F0F60180836D01DBCFB12CA12CA0CF77
:101A6000F701B1937F01A150AACF9111B0CFD60158
:101A7000942F50E302C05D9391509111FCCFC40E9E
:101A8000D11C40E0ACCF01E0BACF80E3DBCF6217DE
:101A9000730731F4963388F4953311F4552369F0C4
:101AA000F6018083FD01842F90E2811108C0A40F0C
:101AB000B11D1C9290E080E002CF81E3F1CF9193C1
:101AC0008150F3CF911183CF8ACFB0E0A0E0EBE655
:101AD000FDE00C94E6105C017B016115710519F0C5
:101AE000DB018D939C9385010F5F1F4FF501D08122
:101AF0008D2F90E00E948D0F6C01892BB9F5DD329E
:101B0000B9F50F5F1F4FD5011196DC91C1E0580167
:101B1000F1E0AF1AB10843E050E060E770E0C501C2
:101B20000E94960F892B69F5680182E0C80ED11CCE
:101B300045E050E06BE670E0C6010E94960F892BED
:101B400021F4680197E0C90ED11CE114F10419F0E9
:101B5000D701CD92DC9260E070E080E89FEFC11188
:101B6000FFC060E070E080E89FE7FAC05801BBCF9B
:101B7000DB3229F485010E5F1F4FF501D181C0E0F2
:101B8000C6CF43E050E068E670E0C5010E94960FC2
:101B9000892BE9F0F80110E000E020E030E0A90135
:101BA0005F01B0ED8B2E8D0E89E08815C8F19C2E5B
:101BB000689491F88C2F8870C2FF16C0811102C002
:101BC0000F5F1F4F3196D501DC91C92DE9CFE1148C
:101BD000F10429F00E5F1F4FF7011183008360E0CD
:101BE00070E080EC9FE7BCC0882311F00150110920
:101BF000A5E0B0E00E94D5109B01AC01220F331F7D
:101C0000441F551F280D311D411D511D283999E9CB
:101C10003907490799E15907A8F2C6609C2ED2CF2F
:101C2000AEEF8A1206C0C3FD3CC09C2E689493F8A8
:101C3000C9CFDF7DD534A9F580818D3239F4C061FB
:101C4000DF011296818162E070E006C0DF018B3215
:101C5000C1F3119661E070E080535D01A61AB70AE6
:101C60008A30F8F4E0E8CE16ECE0DE065CF4B6016B
:101C7000660F771F660F771FC60ED71ECC0CDD1CB4
:101C8000C80ED11C5D01FFEFAF1ABF0A8C918053C3
:101C90008A30A8F1C4FF03C0D194C194D1080C0DBF
:101CA0001D1DC1FF09C0E114F10431F081E0A81A43
:101CB000B108D701AD92BC92CA01B9010E94B30F1D
:101CC000C370C33009F490584B015C0120E030E050
:101CD000A9010E94AE0F882309F440C0CFE9D0E0EB
:101CE00017FF05C0119501951109C7E8D0E06E01F5
:101CF000B8E1CB1AD10880E2E82EF12C0FC0D50153
:101D0000B1CFFE0125913591459154910E191F09CE
:101D1000C501B4010E9414104B015C01D501C4013E
:101D20000E151F0574F72497F594E794CC16DD067D
:101D3000A9F78A2F880F8B2F881F8F3F49F020E04B
:101D400030E0A901C501B4010E94AE0F811106C0A7
:101D500082E290E09093F7028093F602C501B4010D
:101D6000CDB7DEB7ECE00C940211283008F027E084
:101D70003327DA01990F311D87FD916000966105C7
:101D8000710539F432602E5F3D9330E32A95E1F717
:101D900008959F3F30F080387105610509F03C5F80
:101DA0003C5F3D93913008F08068911DDF93CF93A5
:101DB0001F930F93FF92EF92192F987F9695E92F1B
:101DC00096959695E90FFF27E350FF4F9927332704
:101DD000EE24FF24A701E70105900894079428F456
:101DE000360FE71EF81E491F511D660F771F881F0B
:101DF000991F0694A1F70590079428F4E70EF81EA2
:101E0000491F561FC11D770F881F991F661F069413
:101E1000A1F70590079428F4F80E491F561FC71F15
:101E2000D11D880F991F661F771F0694A1F7059093
:101E3000079420F4490F561FC71FD81F990F661F1C
:101E4000771F881F0694A9F784911095177041F0A9
:101E5000D695C79557954795F794E7941A95C1F786
:101E6000E3EAF0E0689415901591359165919591AC
:101E700005907FE27395E118F10A430B560BC90BED
:101E8000D009C0F7E10CF11E431F561FC91FD01D1A
:101E90007EF4703311F48A95E6CFE894015030F067
:101EA000080F0AF40027021708F4202F2395022FA9
:101EB0007A3328F079E37D932A95E9F710C07D9372
:101EC0002A9589F6069497956795379517951794EF
:101ED000E118F10A430B560BC90BD00998F0239572
:101EE0007E9173957A3308F070E37C932013B8F7F2
:101EF0007E9170617D9330F0839571E37D9370E303
:101F00002A95E1F71124EF90FF900F911F91CF9147
:101F1000DF91992787FD9095089591110C94811078
:101F2000803219F089508550C8F70895FB01DC0113
:101F30004150504088F08D9181341CF08B350CF469
:101F4000805E659161341CF06B350CF4605E861B1D
:101F5000611171F3990B0895881BFCCF0E94F00F5B
:101F600008F481E00895E89409C097FB3EF4909549
:101F70008095709561957F4F8F4F9F4F9923A9F062
:101F8000F92F96E9BB279395F695879577956795F1
:101F9000B795F111F8CFFAF4BB0F11F460FF1BC035
:101FA0006F5F7F4F8F4F9F4F16C0882311F096E9C8
:101FB00011C0772321F09EE8872F762F05C0662376
:101FC00071F096E8862F70E060E02AF09A95660F2F
:101FD000771F881FDAF7880F9695879597F90895E8
:101FE000990F0008550FAA0BE0E8FEEF161617062A
:101FF000E807F907C0F012161306E407F50798F092
:10200000621B730B840B950B39F40A2661F0232BAA
:10201000242B252B21F408950A2609F4A140A69526
:102020008FEF811D811D08950E9427100C949B1035
:102030000E948D1038F00E94941020F0952311F02A
:102040000C9484100C948A1011240C94CF100E94CC
:10205000AC1070F3959FC1F3950F50E0551F629F30
:10206000F001729FBB27F00DB11D639FAA27F00DF1
:10207000B11DAA1F649F6627B00DA11D661F829F18
:102080002227B00DA11D621F739FB00DA11D621FFD
:10209000839FA00D611D221F749F3327A00D611D1A
:1020A000231F849F600D211D822F762F6A2F1124FC
:1020B0009F5750409AF0F1F088234AF0EE0FFF1F2F
:1020C000BB1F661F771F881F91505040A9F79E3F86
:1020D000510580F00C9484100C94CF105F3FE4F312
:1020E000983ED4F3869577956795B795F795E795DC
:1020F0009F5FC1F7FE2B880F911D9695879597F9E5
:10210000089599278827089597F99F6780E870E0D8
:1021100060E008959FEF80EC089500240A9416165D
:10212000170618060906089500240A9412161306C5
:10213000140605060895092E0394000C11F4882353
:1021400052F0BB0F40F4BF2B11F460FF04C06F5F6F
:102150007F4F8F4F9F4F089557FD9058440F551F45
:1021600059F05F3F71F04795880F97FB991F61F019
:102170009F3F79F087950895121613061406551F90
:10218000F2CF4695F1DF08C0161617061806991FFC
:10219000F1CF86957105610508940895E894BB27F1
:1021A00066277727CB0197F908950E941711A59FFD
:1021B000900DB49F900DA49F800D911D1124089542
:1021C0002F923F924F925F926F927F928F929F9247
:1021D000AF92BF92CF92DF92EF92FF920F931F9335
:1021E000CF93DF93CDB7DEB7CA1BDB0B0FB6F894E6
:1021F000DEBF0FBECDBF09942A88398848885F8426
:102200006E847D848C849B84AA84B984C884DF8096
:10221000EE80FD800C811B81AA81B981CE0FD11D7A
:102220000FB6F894DEBF0FBECDBFED010895A29F9B
:10223000B001B39FC001A39F700D811D1124911D9A
:10224000B29F700D811D1124911D0895EE0FFF1F87
:102250000590F491E02D09940E9440110C949B107C
:102260000E94941058F00E948D1040F029F45F3FB6
:1022700029F00C94841051110C94CF100C948A10F6
:102280000E94AC1068F39923B1F3552391F3951B89
:10229000550BBB27AA2762177307840738F09F5F87
:1022A0005F4F220F331F441FAA1FA9F335D00E2EF4
:1022B0003AF0E0E832D091505040E695001CCAF761
:1022C0002BD0FE2F29D0660F771F881FBB1F261724
:1022D00037074807AB07B0E809F0BB0B802DBF01FB
:1022E000FF2793585F4F3AF09E3F510578F00C94CA
:1022F00084100C94CF105F3FE4F3983ED4F386959E
:1023000077956795B795F7959F5FC9F7880F911DEA
:102310009695879597F90895E1E0660F771F881FD6
:10232000BB1F621773078407BA0720F0621B730B89
:10233000840BBA0BEE1F88F7E09508950E94F00F0A
:1023400008F48FEF08950F931F93CF93DF9382309C
:10235000910510F482E090E0E091FA02F091FB0226
:1023600030E020E0B0E0A0E0309799F4211531058D
:1023700009F44AC0281B390B24303105D8F58A816D
:102380009B816115710589F1FB0193838283FE01B5
:1023900011C0408151810281138148175907E0F033
:1023A0004817590799F4109761F012960C931297F9
:1023B00013961C933296CF01DF91CF911F910F910D
:1023C00008950093FA021093FB02F4CF2115310512
:1023D00051F04217530738F0A901DB019A01BD0102
:1023E000DF01F801C1CFEF01F9CF9093FB02809399
:1023F000FA02CDCFFE01E20FF31F81939193225099
:10240000310939832883D7CF2091F8023091F9021E
:10241000232B41F420911201309113013093F902E2
:102420002093F802209110013091110121153105FE
:1024300041F42DB73EB74091140150911501241B72
:10244000350BE091F802F091F902E217F307A0F4DE
:102450002E1B3F0B2817390778F0AC014E5F5F4FFA
:102460002417350748F04E0F5F1F5093F902409331
:10247000F802819391939FCFF0E0E0E09CCFCF935F
:10248000DF930097E9F0FC01329713821282A0914A
:10249000FA02B091FB02ED0130E020E01097A1F4C8
:1024A00020813181820F931F2091F8023091F9022F
:1024B0002817390709F061C0F093F902E093F80298
:1024C000DF91CF910895EA01CE17DF07E8F54A8141
:1024D0005B819E0141155105B1F7E901FB83EA8358
:1024E00049915991C40FD51FEC17FD0761F4808104
:1024F00091810296840F951FE901998388838281D7
:1025000093819B838A83F0E0E0E012968D919C9109
:1025100013970097B9F52D913C911197CD01029633
:10252000820F931F2091F8023091F9022817390782
:1025300039F6309751F51092FB021092FA02B093DF
:10254000F902A093F802BCCFD383C28340815181AA
:10255000840F951FC817D90761F44E5F5F4F8881BC
:102560009981480F591F518340838A819B819383AE
:1025700082832115310509F0B0CFF093FB02E0937F
:10258000FA029ECFFD01DC01C0CF13821282D7CFA9
:10259000B0E0A0E0EEECF2E10C94E2108C010097C8
:1025A00051F4CB010E94A3118C01C801CDB7DEB755
:1025B000E0E10C94FE10FC01E60FF71F9C01225095
:1025C0003109E217F30708F49DC0D901CD91DC91E0
:1025D0001197C617D70798F0C530D10530F3CE0153
:1025E00004978617970708F3C61BD70B2297C1934A
:1025F000D1936D937C93CF010E943F12D6CF5B01A4
:10260000AC1ABD0A4C018C0E9D1EA091FA02B0912D
:10261000FB02512C412CF12CE12C109731F58091CB
:10262000F8029091F9028815990509F05CC04616E8
:10263000570608F058C08091100190911101009741
:1026400041F48DB79EB74091140150911501841B40
:10265000950BE817F90708F055C0F093F902E093DD
:10266000F802F90171836083A0CF8D919C9111973D
:1026700012966C90129713967C901397A815B90533
:1026800059F56C0142E0C40ED11CCA14DB0420F1E0
:10269000AC014A195B09DA011296159780F0628243
:1026A000738251834083D9016D937C93E114F104CB
:1026B00071F0D7011396FC93EE93129776CF229682
:1026C0008C0F9D1FF90191838083F301EFCFF0936D
:1026D000FB02E093FA0269CF4816590608F42C0170
:1026E0007D01D3019ACFCB010E94A3117C010097F9
:1026F00049F0AE01B8010E948513C8010E943F1243
:10270000870153CF10E000E050CFFB01DC0102C095
:1027100001900D9241505040D8F70895FB01DC0123
:1027200001900D920020E1F7089510E0C3EFD0E092
:1027300004C0FE010E9426112196C43FD107C9F7AB
:04274000F894FFCF3B
:10274400040C060305090200040A0A0A0E1F1F0EE0
:102754000000FC028000000040001400540000004F
:102764000000DA01AD0116048801A6019701890170
:10277400000000004A036102970297030803A602BF
:10278400FA02000000007C04610216046002496E33
:10279400697469616C697A696E67004350553A20BF
:1027A400004750553A20004E2F410047487A004DCB
:1027B400487A0020484F5420202020202020202028
:1027C400200020484F5420202020202020202000BA
:00000001FF
